:020000040800F2
:10000000FFFF0120F55C0008395D0008395D00083C
:10001000395D0008395D0008395D00080000000006
:10002000000000000000000000000000D9430008AC
:10003000395D0008000000009D440008F5440008F8
:10004000395D0008395D0008395D0008395D000838
:10005000395D0008395D0008395D0008395D000828
:10006000395D0008395D0008395D0008395D000818
:10007000395D0008395D0008395D0008395D000808
:10008000395D0008395D0008395D0008395D0008F8
:10009000395D0008395D0008395D0008395D0008E8
:1000A000395D0008395D0008395D0008395D0008D8
:1000B000395D0008395D0008395D0008395D0008C8
:1000C000395D0008395D0008395D0008395D0008B8
:1000D000395D0008395D0008F9210008392200085F
:1000E000395D0008395D0008395D0008395D000898
:1000F000395D0008395D0008395D0008395D000888
:10010000395D0008395D0008395D0008395D000877
:10011000395D0008395D0008395D0008395D000867
:10012000395D0008395D0008395D0008395D000857
:10013000395D0008395D0008395D0008395D000847
:10014000395D0008395D0008395D0008395D000837
:10015000395D0008395D0008395D0008395D000827
:10016000395D0008395D0008395D0008395D000817
:10017000395D0008395D0008395D0008395D000807
:08018000395D0008395D00083B
:1001880030B49DF80850457280E80600037230BC10
:10019800704700BF642938B5044610DC11F1640FBC
:1001A800B8BF642518DA2068217A002202F0C8F95D
:1001B8002A466068617ABDE8384002F0C1B9642512
:1001C8006068617A002202F0BBF92A462068217A29
:1001D800BDE8384002F0B4B90029C8BF8DB2EFDCE1
:1001E80049428DB2DFE700BF002206490260426043
:1001F8008260C26002618261C2610262426282629E
:100208004161704700007AC4024A034B02604360B0
:10021800704700BF9A99193ECDCCCC3D84B070B5DB
:1002280082B007AC84E80E0000231A46194616ADC2
:1002380009B206EE901A12B207EE102A1BB294ED1C
:10024800005AD4ED015A94ED026A07EE903AF8EE9E
:10025800E66AB8EEC77AF8EEE77A76EE856A37EEA0
:10026800257A77EE867AFDEEE66ABDEEC77ACDEDA1
:10027800016AFDEEE77ABDF804108DED017A0C34C1
:10028800BDF80420CDED017AAC42BDF80430CFD1E1
:10029800164C09B284FB0156C91712B2C1EB6601AC
:1002A80084FB02E509B2D21707EE901A1BB2C2EB23
:1002B800650284FB03E412B2DB17F8EEE76AC3EBCE
:1002C800640307EE902A1BB2B8EEE77A07EE903A7D
:1002D800F8EEE77AC0ED0B6A80ED0C7AC0ED0D7A86
:1002E80002B0BDE8704004B0704700BF676666663C
:1002F8000023044A4261C36003618361C3610362EE
:10030800704700BF00007AC4F0B52DED028BD0ED28
:10031800037A90ED0B8A83B00446406A37EEC88AA8
:1003280005F00EF8064618EE100A0F4605F008F814
:100338002FA3D3E9002305F057F802460B463046B1
:10034800394604F09FFE05F061FAD4ED016A94ED98
:10035800007A294B606207EE900A67EEA67A1E685B
:10036800E8EE077AFDEEE77ACDED017ABDF80450A4
:1003780004F06CF8358204F07BF8D4ED047A94ED3F
:100388000C8AA06A37EEC88A04F0DAFF064618EE2F
:10039800100A0F4604F0D4FF15A3D3E9002305F093
:1003A80023F802460B463046394604F06BFE05F04A
:1003B8002DFAD4ED016A94ED007A104BA06207EE95
:1003C800900A67EEA67A1D68E8EE077AFDEEE77AEE
:1003D800CDED017ABDF8044004F038F82C8203B062
:1003E800BDEC028BBDE8F04004F042B8AFF30080EA
:1003F8007B14AE47E17A843F3000002034000020AF
:100408002DE9F04383B0044603F00CFC02AFDFF89B
:100418004C9047F8040DDFF84880D9F80050666A18
:1004280004F014F82D8A04F023F8304629B2FFF7B7
:10043800B1FED8F80050A66A04F008F82D8A04F036
:1004480017F8304629B2FFF7A5FEE3690133E361E7
:100458003846642103F006FDDFE700BF30000020C6
:100468003400002070B582B0069C0094079E089D59
:10047800044601F0A5FC034B66622046A562236092
:1004880002B070BDB05E00082DE9F04FB1B006466D
:1004980003F0C8FB464F029006F1300306F1260927
:1004A800019300253C6803F0D1FF04F1100EBEE86B
:1004B8000F0012AC0FC4BEE80F000FC4BEE80F0057
:1004C8000FC49EE8070084E8070003F0D1FF0DF190
:1004D800480CBCE80F000DF10C0EAEE80F00BCE8AC
:1004E8000F00AEE80F00BCE80F00AEE80F0094E87C
:1004F80007008EE8070005EB450B03ABDDF804A009
:1005080003EB8B0BC8460024E1B2706A02F0AEF828
:1005180038F9023FBAEC017AC01A07EE900AF8EEF1
:10052800E77A0134C7EE877A032CEBEC017AEBD13A
:100538000DF10C0EBEE80F0021AC0FC4BEE80F0091
:100548000FC4BEE80F000FC49EE807000135EDB2E6
:10055800062D28BF002584E80700D7F800B003F06F
:1005680075FF0DF1840CBCE80F000BF1100EAEE81E
:100578000F00BCE80F00AEE80F00BCE80F00AEE8C3
:100588000F0094E807008EE8070003F071FF094B9D
:100598001C6803F05BFF1523237403F069FFF369FC
:1005A8000133F36102A8502103F05CFC7AE700BF35
:1005B800380000204000002070B582B0069C0094EE
:1005C800079D044601F0FCFB0A4B264603F108018F
:1005D80003F1180253F8100F46F8281BA06207CA47
:1005E8009B88B38004F1300383E8070020466562E6
:1005F80002B070BDB85E00082DE9F043ADB0074603
:1006080003F010FB0D9003F021FF03F031FF386A6F
:10061800DFF87C90FFF7F8FD0DF13808D9F80050A5
:10062800103503F013FF0FCD1DAC0FC40FCD0FC451
:100638000FCD0FC495E807001DAE84E8070003F04E
:1006480017FF0FCE45460FC50FCE0FC50FCE0FC5EE
:1006580094E8070011AE85E807003D6A0FCE6C46A6
:100668000FC40FCE0FC496E80F0084E80F00284689
:1006780098E80E00FFF7D2FD386AFFF745FEFB69E0
:100688000133FB610DA8642103F0ECFBC6E700BF52
:100698003800002070B582B00446069D0095079E7C
:1006A80001F08EFB034BE56020462662236002B012
:1006B80070BD00BFE85E00089863000800000020D5
:1006C800300000203000002058C9002008B53C4BFD
:1006D800984224D03B4B98422BD03B4B984232D087
:1006E8003A4B984239D03A4B984240D0394B9842CD
:1006F80047D0394B98424ED0384B984255D0384B5A
:10070800984200D008BD4FF48070012100F09EFA95
:100718004FF480700021BDE8084000F097BA01202E
:10072800014600F093FA01200021BDE8084000F0DE
:100738008DBA0220012100F089FA02200021BDE8CB
:10074800084000F083BA0420012100F07FFA042059
:100758000021BDE8084000F079BA0820012100F026
:1007680075FA08200021BDE8084000F06FBA102093
:10077800012100F06BFA10200021BDE8084000F0CC
:1007880065BA2020012100F061FA20200021BDE88F
:10079800084000F05BBA4020012100F057FA4020E1
:1007A8000021BDE8084000F051BA8020012100F086
:1007B8004DFA80200021BDE8084000F047BA00BF8C
:1007C800000002400004024000080240000C024001
:1007D800001002400014024000180240001C0240B1
:1007E8000020024000222DE9F0431346D1F800E032
:1007F80001274FF0030C04E00133102B02F1020231
:1008080028D007FA03F404EA0E05A542F4D1D0F87B
:1008180000800E790CFA02F4E44304EA0808C0F8F0
:100828000080D0F8008006FA02F9013E49EA08087B
:10083800012EC0F800800FD9C568CE792C40C4605D
:10084800C56806FA02F401332C43102BC46002F188
:100858000202D6D1BDE8F083D0F8089091F805805F
:100868008E7904EA0909C0F80890D0F8089008FAC7
:1008780002F848EA0908C0F80880D0F8048028EA95
:1008880005054560D0F8048006FA03F5ADB245EADF
:1008980008054560D0E700BF00234FF6FF720260ED
:1008A800037143718371C371704700BF82B04FF405
:1008B80080330193019B0B430193019BC361C16189
:1008C800019BC361C3690193C369019302B0704777
:1008D8000369194214BF012000207047006980B2E3
:1008E800704700BF4369194214BF012000207047B8
:1008F800406980B2704700BF0183704741837047E9
:100908000AB9418370470183704700BF416170474E
:100918004369594041617047CB0800EB830001F0FF
:10092800070110B48900046A0F238B4024EA0303EB
:100938000362036A5DF8044B8A40134303627047FD
:100948000A4B0B481A68002142F001021A609960AC
:100958001A6822F0847222F480321A6058601A6889
:1009680022F480221A60D960704700BF0038024024
:1009780010300024024B00221A701870704700BF14
:100988000238024082B000230A4A019302E0B3F51C
:10099800A06F08D0136813F4003F019B03F1010313
:1009A8000193019BF3D0034B1868C0F3404002B099
:1009B800704700BF00380240034A136823F0F80369
:1009C80043EAC0001060704700380240014B1860CD
:1009D800704700BF00004742064B002201281A70EA
:1009E8001A7005D0042802D105221A707047704782
:1009F8001870704770380240014B1860704700BF8C
:100A0800800E474230B4029C064D40EA0460014320
:100A18005B08013B41EA821242EA0340686030BC4D
:100A2800704700BF00380240014B1860704700BF94
:100A3800600047420907034B41EA8010C3F884006D
:100A4800704700BF00380240014B1860704700BF74
:100A580068004742014B1860704700BF4C0047428E
:100A6800034A936823F0EC63194308439060704786
:100A780000380240034A936823F078431943084337
:100A88009060704700380240034A936823F00303DC
:100A980018439060704700BF00380240024B9868C6
:100AA80000F00C00704700BF00380240034A93680A
:100AB80023F0F00318439060704700BF00380240ED
:100AC800034A936823F4E05318439060704700BFCB
:100AD80000380240034A936823F4604343EAC000A5
:100AE800906070470038024010B4214CA36803F0AE
:100AF8000C03042B1BD0082B1CD01E4B03601C4A74
:100B08001D499468C4F303140C5DE3404360946882
:100B1800C4F382240C5D23FA04F4846092685DF8BF
:100B2800044BC2F342328A5CD340C3607047134B14
:100B38000360E4E76368616813F4800F636818BFB3
:100B48000E4C01F03F020CBF0A49B4FBF2F1C3F3AB
:100B5800881308BFB1FBF2F101FB03F2044B5B6899
:100B6800C3F3014301335B00B2FBF3F30360C6E751
:100B7800003802400024F4000000002040787D0185
:100B880000F44073B3F5407F09D108498B6820F021
:100B9800704223F4F81322F4407213438B60034A23
:100BA800136FC0F30B0018431067704700380240FA
:100BB800014B1860704700BF3C0E4742014B18605C
:100BC800704700BF400E4742014B1860704700BF96
:100BD8005C014742044A136B19B923EA0000106309
:100BE800704718431063704700380240044A536B3B
:100BF80019B923EA000050637047184350637047DF
:100C080000380240044A936B19B923EA0000906344
:100C1800704718439063704700380240044A136CC9
:100C280019B923EA0000106470471843106470472C
:100C380000380240044A536C19B923EA0000506492
:100C4800704718435064704700380240044A1369DB
:100C580019B923EA00001061704718431061704702
:100C680000380240044A536919B923EA0000506168
:100C7800704718435061704700380240044A93692E
:100C880019B923EA000090617047184390617047D2
:100C980000380240044A136A19B923EA00001062B6
:100CA800704718431062704700380240044A536A7C
:100CB80019B923EA00005062704718435062704720
:100CC80000380240044A136D19B923EA0000106580
:100CD800704718431065704700380240044A536D46
:100CE80019B923EA000050657047184350657047EA
:100CF80000380240044A936D19B923EA0000906550
:100D0800704718439065704700380240044A136ED4
:100D180019B923EA00001066704718431066704737
:100D280000380240044A536E19B923EA000050669D
:100D3800704718435066704700380240044A1378D9
:100D480019B923EA000010707047184310707047F3
:100D58000D3802404309012B0BD0022B094B0CBF65
:100D68001A6F5A6F00F01F0322FA03F000F0010017
:100D78007047044B1A6800F01F0322FA03F000F0D2
:100D88000100704700380240024A536F43F08073F5
:100D98005367704700380240034BDB68184214BFA2
:100DA80001200020704700BF00380240014B187036
:100DB800704700BF0E38024008B5604B984235D0E6
:100DC800B0F1804F3CD05E4B984243D05D4B984287
:100DD8004AD05D4B984251D05C4B984258D05C4BFE
:100DE80098425FD05B4B984266D05B4B98426DD07F
:100DF8005A4B984276D05A4B98427FD0594B9842DA
:100E080000F08880584B984200F08E80574B9842EB
:100E180000D008BD4FF480700121FFF73BFF4FF46D
:100E280080700021BDE80840FFF734BF012001466B
:100E3800FFF73CFF01200021BDE80840FFF736BF5F
:100E480001200146FFF726FF01200021BDE80840E8
:100E5800FFF720BF02200121FFF71CFF022000211D
:100E6800BDE80840FFF716BF04200121FFF712FF75
:100E780004200021BDE80840FFF70CBF082001212D
:100E8800FFF708FF08200021BDE80840FFF702BF70
:100E980010200121FFF7FEFE10200021BDE80840C8
:100EA800FFF7F8BE20200121FFF7F4FE20200021E3
:100EB800BDE80840FFF7EEBE02200121FFF7F6FE6D
:100EC80002200021BDE80840FFF7F0BE4FF4803053
:100ED8000121FFF7EBFE4FF480300021BDE8084008
:100EE800FFF7E4BE4FF400300121FFF7DFFE4FF4B7
:100EF80000300021BDE80840FFF7D8BE4FF480203D
:100F08000121FFF7D3FE4FF480200021BDE80840FF
:100F1800FFF7CCBE40200121FFF7BCFE4020002196
:100F2800BDE80840FFF7B6BE80200121FFF7B2FEFA
:100F380080200021BDE80840FFF7ACBE000001405A
:100F48000004004000080040000C00400010004071
:100F580000140040000401400040014000440140EA
:100F68000048014000180040001C004000200040DC
:100F7800224A038890429BB212D002F580629042C6
:100F88000ED0B0F1804F0BD0A2F58032904207D03E
:100F980002F58062904203D002F58062904203D14C
:100FA8004A8823F070031343154A90421ED002F575
:100FB800806290421AD00A8970B423F440730F4CAF
:100FC8004E680D889BB21343A0420380C662058514
:100FD80006D00C4B984203D00123838270BC704723
:100FE8008B7A03860123838270BC704703800B8849
:100FF8004A68C2620385012383827047000001406A
:10100800001000400004014000234FF0FF3242600E
:101018000380038143808372704700BF0185828209
:10102800704700BF038823F070031B041B0C19438F
:101038000180704741627047C1627047406A7047DB
:10104800008D80B2704700BF038829B923F00203DE
:101058001B041B0C038070479BB243F00203038000
:10106800704700BF038829B923F004031B041B0C35
:10107800038070479BB243F004030380704700BFAE
:10108800038829B923F080031B041B0C03807047D5
:101098009BB243F080030380704700BF038823F0AE
:1010A80008031B041B0C038003889BB219430180AF
:1010B800704700BF038823F440731B041B0C038094
:1010C80003889BB219430180704700BF038829B980
:1010D80023F001031B041B0C038070479BB243F0F1
:1010E80001030380704700BFF0B5048CB1F802C05B
:1010F8008B890F881B4E24F001042404240C0484DB
:10110800058CB0F804E0048B25F0020524F0730286
:101118002D042D0C4CEA030312042B43120CB0428D
:101128009BB21FFA8EF442EA070208D00E4DA8427D
:1011380005D089688480028341630384F0BDCE8929
:10114800B1F812E00D8A8F8823F0080324F4407464
:1011580033434EEA050523F004032C433B43A4B272
:10116800E7E700BF0000014000040140F0B5058C2E
:101178000C88B1F80CC0B1F802E01E4E25F010053D
:101188002D042D0C0584028C8788058B22F0200302
:101198001B0425F4E6421B0C120443EA0C13120C40
:1011A80043EA0E1342EA0422B0429BB2BDB294B2A3
:1011B80008D0114A904205D08A68858004838263EA
:1011C8000384F0BD23F08002CB89B1F810E08F884A
:1011D8004E8A92B242EA031225F440654FF6BF7375
:1011E800134045EA8E0543EA071345EA86059BB294
:1011F800ADB2E1E70000014000040140F0B5058C04
:10120800B1F80CC0B1F802E00C881E4F25F48075C7
:101218002D042D0C0584028C8688858B22F400739E
:101228001B0425F073021B0C43EA0C23120443EA47
:101238000E23120CB8429BB2B5B244EA020408D09D
:10124800114A904205D08A6885808483C2630384EA
:10125800F0BD23F40062CB89B1F810E08F884E8A84
:1012680092B242EA032225F440554FF6FF33134069
:1012780045EA0E1543EA072345EA06159BB2ADB2C7
:10128800E1E700BF0000014000040140028CB1F812
:1012980002C022F480521204120C2DE9F041B1F878
:1012A8000C80B1F800E00284058C8788828B124E8E
:1012B80025F4005422F4E6432404240C1B0444EAD5
:1012C80008341B0C44EA0C3443EA0E23B042A4B29F
:1012D800BAB29BB209D0094DA84206D0896882806B
:1012E800838301640484BDE8F0810D8A22F480427E
:1012F80042EA851292B2F1E7000001400004014081
:10130800002303804380838083608381C3810382B9
:101318004382704710B4048C0123A4B28B4024EAA2
:10132800030321F00804038418307CB10439C1F3A5
:101338004E0148F6FF730C5823400B5012020B580D
:101348005DF8044B92B21A430A50704749084FF6A9
:101358008F7344582340435043585DF8044B1A4355
:10136800425070474163704781637047C16370475B
:1013780001647047038B23F070031B041B0C194393
:1013880001837047038B23F4E0431B041B0C43EADF
:10139800012189B201837047838B23F070031B04FA
:1013A8001B0C194381837047838B23F4E0431B0490
:1013B8001B0C43EA012189B281837047038B23F018
:1013C80008031B041B0C194301837047038B23F488
:1013D80000631B041B0C43EA012189B20183704797
:1013E800838B23F008031B041B0C1943818370476C
:1013F800838B23F400631B041B0C43EA012189B28D
:1014080081837047038B23F004031B041B0C1943CF
:1014180001837047038B23F480631B041B0C43EA8E
:10142800012189B201837047838B23F004031B04D5
:101438001B0C194381837047838B23F480631B043F
:101448001B0C43EA012189B281837047038B23F087
:1014580080031B041B0C194301837047038BC3F3E0
:101468000E0343EA012189B201837047838B23F07D
:1014780080031B041B0C194381837047838BC3F3C0
:101488000E0343EA012189B281837047038C23F05C
:1014980002031B041B0C194301847047038C23F0BF
:1014A80008031B041B0C194301847047038C23F0A9
:1014B80020031B041B0C43EA011189B20184704705
:1014C800038C23F080031B041B0C43EA011189B22F
:1014D80001847047038C23F400731B041B0C43EA3C
:1014E800012189B201847047038C23F400631B0433
:1014F8001B0C43EA012189B201847047038C23F451
:1015080000531B041B0C43EA013189B20184704764
:1015180010B4048C0123A4B28B4024EA030303848F
:10152800038C5DF8044B8A4013439BB203847047D5
:1015380010B4048C0423A4B28B4024EA030303846C
:10154800038C5DF8044B8A4013439BB203847047B5
:101558000B88F0B5002B32D0042B57D0082B00F0A5
:101568008380028C4F88B1F804E00E89CD8822F47C
:1015780080521204120C0284848B028C24F4407171
:1015880022F4005309055B04090D5B0C41EA0E21A6
:1015980043EA073341EA06319BB243F4805389B2E8
:1015A80081830384828B22F440621204120C8283AA
:1015B800838B9BB243EA05239BB28383F0BD028CE5
:1015C8004E888D880B89CC8822F001021204120CF7
:1015D8000284028B018C92B222F0F30221F00A01FC
:1015E80042EA0313090446F001029BB2090C2B439B
:1015F800114303830184038B23F00C031B041B0C8E
:101608000383038B9BB21C430483F0BD058C4F8876
:101618008E88B1F808E0CC8825F010010904090C7F
:101628000184028B018C22F440731B051B0D8AB2C6
:1016380043EA0E3322F0A0029BB242EA071243EAC1
:10164800062392B29BB242F0100203830284038BFA
:1016580023F440631B041B0C0383038B9BB243EAF4
:1016680004239BB20383F0BD068C4F888D880A89BA
:10167800CC8826F480710904090C0184818B038CC1
:1016880089B29BB221F0F30123F4206341EA0212EC
:1016980043EA072392B29BB243F480732A438283BE
:1016A8000384838B23F00C031B041B0C8383838B21
:1016B8009BB21C438483F0BD0023012282800380F7
:1016C8004380C38003817047B1F802C00B88F0B52E
:1016D800B1F804E0BCF1000F0CBF02240024BEF1F5
:1016E800010F0CBF02250125002B4BD0038C0E895E
:1016F800C98823F010031B041B0C0384028B078C7E
:1017080022F440731B051B0DBAB243EA063322F0DC
:10171800A0029BB242EA0C1243EA0E2392B29BB299
:1017280042F0100203830284038B23F440631B04FA
:101738001B0C0383038B9BB243EA01239BB20383F5
:10174800038C23F001031B041B0C0384038B028C02
:101758009BB223F0F30392B243EA061622F00A037F
:1017680043F00103B6B21C432E4306830484038B63
:1017780023F00C031B041B0C0383038B9BB219433C
:101788000183F0BD038C0F89CE8823F001031B046D
:101798001B0C0384018B038C89B221F0F30123F025
:1017A8000A0341EA07111B044CF0010289B21B0C21
:1017B800134341EA0E0EA0F818E00384038B23F0CC
:1017C8000C031B041B0C0383038B9BB2334303835F
:1017D800038C23F010031B041B0C0384028B018C65
:1017E80022F440731B051B0D8AB243EA073322F02B
:1017F800A0029BB242F0100243EA052542EA041413
:1018080005830484038B23F440631B041B0C0383AC
:10181800038B9BB243EA0626B6B20683F0BD00BF2F
:10182800406B7047806B7047C06B7047006C7047A7
:10183800038B23F00C031B041B0C0383038B9BB249
:1018480019430183704700BF038B23F440631B04D3
:101858001B0C0383038B9BB243EA012189B20183EA
:10186800704700BF838B23F00C031B041B0C83837E
:10187800838B9BB219438183704700BF838B23F40A
:1018880040631B041B0C8383838B9BB243EA0121B7
:1018980089B28183704700BFF0B50B88B1F802E0C8
:1018A8008F88CE880D894C898A894EEA03033B4389
:1018B80033432B43234313439BB2A0F84430F0BD7A
:1018C8000023038043808380C38003814381838115
:1018D800704700BFB0F8443021B9C3F30E03A0F835
:1018E800443070476FEA43436FEA53439BB2A0F812
:1018F80044307047838829B923F004031B041B0C68
:10190800838070479BB243F004038380704700BF15
:10191800838829B923F001031B041B0C83807047BB
:101928009BB243F001038380704700BF83899BB259
:101938001AB923EA010181817047194381817047EF
:1019480081827047038A194214BF01200020704722
:10195800C94389B201827047038A828911EA030068
:1019680092B203D0114214BF01200020704700BF7B
:10197800C94389B2018270470A43A0F848207047DA
:1019880083899BB21AB923EA0101818170471943FF
:1019980081817047838829B923F008031B041B0C35
:1019A800838070479BB243F008038380704700BF71
:1019B800038923F007031B041B0C0381704700BF36
:1019C800038923F070031B041B0C1943018103894D
:1019D8009BB243F007030381704700BF602930B40E
:1019E800048C24D024F001042404240C0484048BE3
:1019F800058CA4B224F0F304ADB244F0010425F040
:101A08000A0544EA031345F001049BB22243038309
:101A18000284038923F070031B041B0C0B4303810E
:101A280003899BB243F00703038130BC704724F05D
:101A380010042404240C0484048B058C24F44074BE
:101A48002405ADB2240D25F0A00544F4807445F0BA
:101A5800100544EA033345EA02129BB292B20383AB
:101A68000284D6E710B4048942EA0323E4B223438C
:101A78009BB21943018103895DF8044B23F0770376
:101A88001B041B0C43F077030381704710B40489CF
:101A980042EA0323E4B223439BB219430181038939
:101AA8005DF8044B9BB243F480430381704700BF49
:101AB800038923F070031B041B0C19430181704731
:101AC800838823F070031B041B0C838083889BB2DC
:101AD80019438180704700BF038923F007031B0463
:101AE8001B0C038103899BB219430181704700BF16
:101AF800038923F080031B041B0C038103899BB219
:101B080019430181704700BF10B40489E4B221432E
:101B18000A4342EA032399B201815DF8044B7047F6
:101B280070B40689048B058C24F4407424F00304F3
:101B3800ADB225F0220526F0070624042A43360410
:101B4800240C360C44F4807442EA0313314344F005
:101B580001049AB201810483028470BC704700BFFB
:101B6800838829B923F080031B041B0C83807047EA
:101B78009BB243F080038380704700BFA0F85010E9
:101B8800704700BF01F0ACBD08B101F0D7BD704788
:101B980001F0A6BD08B101F0D1BD7047044A05495E
:101BA8001368002B08BF0B4618441060184670478E
:101BB8004400002058C900200078B0FA80F040099D
:101BC800704700BF01230370704700BF704700BF14
:101BD800704700BF01207047002070470020704701
:101BE800704700BF38B5064D04461B2123682046C0
:101BF8005B68984715F8011F0029F7D138BD00BF69
:101C0800C8610008054A026010B40A2403210022B2
:101C18000471817142715DF8044B7047F85E0008E9
:101C280038B50C460978054639B12B6828465B68F3
:101C3800984714F8011F0029F7D138BD0728034B2E
:101C480028BF072018700920704700BF1000002027
:101C5800831E0E2B9CBF024B58700A20704700BF92
:101C68001000002010B504460A2910D8DFE801F05A
:101C7800171C21262B2B062E3239110003680D2143
:101C88005B689847236820465B680A219847204686
:101C980010BD164A0023527802714371F7E70222F9
:101CA800002302714371F2E7082200230271437195
:101CB800EDE70A22002302714371E8E710220023AE
:101CC80002714371E3E701234371E0E703689B690D
:101CD8009847DCE70368064A5B699342D7D0984780
:101CE800D5E7024B1B788371D1E700BF10000020B5
:101CF800E91B0008F8B5134D0368134E0746A1F118
:101D08003004DB6838469847A0F130037F28DBB2FF
:101D1800A5FB041211D008280FD0092B0FD804EB0B
:101D2800840400EB4400A0F130043B681A69B24215
:101D3800E7D0384690473B68E3E7D408F5E7204604
:101D4800F8BD00BFCDCCCCCCE11B000838B5094CA0
:101D580005462B681B69A342FDD028469847A0F189
:101D68003003DBB2092B0146F3D82846BDE83840DA
:101D7800FFF7C0BFE11B000870B502680F4C0546AD
:101D880000261369A342FCD0284698472D2801460F
:101D980002D12A680126F4E7A0F13003DBB2092B4F
:101DA80009D828461EB9BDE87040FFF7A3BFFFF762
:101DB800A1FF404270BD2A68E3E700BFE11B0008AD
:101DC8002DE9F041294D044684B040F8045B002613
:101DD8001F46009201909AB2029623460396244821
:101DE8000A9D884601F018FD224A23491368267681
:101DF80001336676E6610E68E5602761A6600C60CF
:101E08001360636195B10128284613D01B49FFF779
:101E180007FF28464146FFF703FF2B682846222183
:101E28005B68984728460621FFF71CFF204604B048
:101E3800BDE8F0811249FFF7F3FE28464146FFF757
:101E4800EFFE28460F49FFF7EBFE28460321FFF770
:101E580009FF616903F032F80221FFF703FF062149
:101E6800FFF700FF204604B0BDE8F081205F0008BE
:101E78003D5D000854C9002048000020F0610008BA
:101E8800D0610008D861000808B5036804461B68DB
:101E98009847002363604FF0FF3002F01DF8FAE71F
:101EA80001764176704700BF38B5C5689DB10446D4
:101EB8002846FFF7B5FE28460621FFF7D3FEE4685B
:101EC8004CB120460449FFF7ABFE20460621BDE889
:101ED8003840FFF7C7BE38BD0862000808B501F0F2
:101EE800A1FE07EE100ADFED037AB8EE470A80EE8E
:101EF800270A08BD00401C460D4B70B50446036018
:101F08000E4679B1084603F067FFC0B20C2828BF17
:101F18000C2005460130FFF73BFE2A46A0603146FB
:101F280003F088FF034B1A68E2601C60204670BD0E
:101F3800286200084C00002038B5044640680D4669
:101F480001F090FE01462846FFF76AFE2B6809213A
:101F58005B6828469847606801F084FE03F03CFF00
:101F6800072804D82B6828465B68092198476068C9
:101F780001F022FD0146284602F0A0FF144905465B
:101F8800FFF74EFE217E284602F04CFF1049054619
:101F9800FFF746FE606802F05DF90146284602F048
:101FA8008DFF0C490546FFF73BFE2169284602F0E4
:101FB80085FF07490546FFF733FE28460449FFF722
:101FC8002FFE2846E169BDE8384002F077BF00BF20
:101FD8002C6200083062000838B504460D462368B4
:101FE80020465B682946984728460621FFF73AFEAF
:101FF800A468002CF3D138BD10B50B6804465B68A3
:10200800084621469847204610BD00BF10B528490C
:102018000446FFF705FE20462649FFF701FE062184
:102028002046FFF71FFE20462349FFF7F9FD20460B
:102038002249FFF7F5FD20462149FFF7F1FD06216A
:102048002046FFF70FFE20461E49FFF7E9FD204610
:102058001D49FFF7E5FD20461C49FFF7E1FD204635
:102068000621FFF7FFFD1A4B186810B12146FFF74C
:10207800B3FF18492046FFF7D3FD01F003FE02F035
:10208800E9F80146204602F019FF13490446FFF714
:10209800C7FD20464FF4A07102F0CAFD0F4904465F
:1020A800FFF7BEFD20460621BDE81040FFF7DABD68
:1020B8003462000840620008486200085C62000858
:1020C8006862000870620008846200089062000874
:1020D800480000209862000830620008A4620008E6
:1020E800826813881B06FCD589B29180704700BFAF
:1020F80000B583B002A9002301F8013D4FF0FF327B
:10210800C06801F047F99DF8070003B05DF804FBCB
:1021180000B583B002A9002301F8013D4FF0FF325A
:102128000123C06801F036F99DF8070003B05DF897
:1021380004FB00BF08B5C06801F038FA003018BFCA
:10214800012008BD10B5104B84689C4214D00F4B79
:102158009C4200D010BD4FF480200121FEF75EFDA7
:1021680002200121FEF736FD204640F225510122CA
:10217800BDE8104002F006BD4FF400300121FEF723
:102188004DFD01200146EDE70044004000480040B5
:1021980038B5154B84689C42054614D0134B9C42B5
:1021A80000D038BD4FF480200021FEF743FD2046C3
:1021B800002102F00DFC204640F225510022BDE826
:1021C800384002F0DFBC4FF400300021FEF732FD4A
:1021D8002046002102F0FCFB204640F22551002257
:1021E80002F0D0FCAC68D9E7004400400048004049
:1021F80000B50D4883B040F2255102F0EBFC58B110
:10220800094802F01DFC094B02A9002201F8010D42
:102218001868134600F0AEFF40F22771024802F03A
:10222800D9FC03B05DF804FB0044004050000020D6
:1022380000B50D4883B040F2255102F0CBFC58B1EF
:10224800094802F0FDFB094B02A9002201F8010D23
:102258005868134600F08EFF40F22771024802F0DA
:10226800B9FC03B05DF804FB0048004050000020B2
:1022780000B583B00023012201A88DF804108DF861
:1022880005308DF806308DF8072002F05DFA03B0AE
:102298005DF804FB2DE9F04182B00C469046684693
:1022A80001261F460225FEF7F7FA06FA08F2002370
:1022B800204669468DF8063000928DF805508DF855
:1022C8000450BE40FEF78EFA6946204600968DF807
:1022D80005508DF80450FEF785FA2046414607223E
:1022E800FEF71AFB204639460722FEF715FB02B017
:1022F800BDE8F08170B5044684B00E461546FFF778
:1023080081FC3C4B236001210022A660256120202E
:1023180000F0FCFEA3683849E0608B42024646D0D4
:102328006D46364A934221D0284602F02DFB236998
:10233800A0680093294600230C22ADF80430ADF8BC
:102348000630ADF80830ADF80C30ADF80A2002F0D0
:10235800B9FAA068012240F2255102F013FCA068E6
:10236800012102F035FB204604B070BD244BE26821
:102378005A604FF480200121FEF750FC0220012111
:10238800FEF728FC20461F490A220B23FFF782FF8D
:1023980000232721012228468DF800108DF80130EE
:1023A8008DF802308DF8032002F0CEF9BCE7144B0B
:1023B8004FF4003001211A60FEF730FC012001467D
:1023C800FEF708FC2046104902220323FFF762FFAC
:1023D80000232621012268468DF801308DF802304D
:1023E8008DF800108DF803206D4602F0ADF9A36852
:1023F80097E700BF305F00080044004000480040F5
:10240800500000200004024000000240F0B50D46D4
:10241800194F0139090104461E467B187858606037
:10242800711E2181D3F808C058682570012185B034
:102438001746E047114B07FB06F21968B1FBF2F2A9
:10244800012D92B202F1FF3202D0083D032D00D8CF
:10245800520000236068ADF8042001A9ADF80C30E3
:10246800ADF806300296FEF783FD60680121FEF79D
:102478002DFE204605B0F0BD545F00082C0000205A
:102488002DE9F047294E88B0B142109F0C46054609
:10249800924699463BD0264B99423DD0254B9942CE
:1024A8003FD0254B99422DD04FF0010808FA0AF287
:1024B80002230026204601A901928DF808308DF8E4
:1024C80009308DF80B808DF80A60FEF78BF92A78B1
:1024D8001A4B03EB0213204613F8042C5146FEF75F
:1024E8001BFA60236868ADF80C3003A9ADF80E80BC
:1024F8000596ADF81860C84768680821B84708B05D
:10250800BDE8F08708200121FEF764FBCCE7012035
:102518000146FEF75FFBC7E702200121FEF75AFBE1
:10252800C2E704200121FEF755FBBDE70000024089
:102538000004024000080240000C0240545F0008FA
:102548004368008901F1804101393433824228BF50
:10255800024643F82120704710B504462A22217A02
:10256800006800F03BFB40F00103217A2068DBB2F1
:102578002A22BDE8104000F0EDBB00BF10B50446AC
:102588002A22217A006800F029FB217A00F0FE0354
:102598002A222068BDE8104000F0DCBB30B40025DA
:1025A800457280E80A00027230BC704738B50446AC
:1025B80000254572217A006800F06CFCB8B9637A8E
:1025C800A3B965686DB328461649FFF729FB284665
:1025D8000321FFF747FB217A02F024FC0221FFF7D1
:1025E80041FB0621BDE83840FFF73CBB38BD217AE6
:1025F80020680D2200F0F2FA012363722046FFF7EB
:10260800BDFF637A002BDCD02B462068217A0E228E
:1026180000F0A0FB637A002BD3D02046FFF79CFF85
:10262800CDE738BDA8620008437A03B9704793E73D
:10263800437A03B97047A1E7437A03B9704710B5E5
:1026480004462A22217A0068002300F083FB217ABD
:1026580020682B22002300F07DFB2068217A2B22A2
:102668004023BDE8104000F075BB00BF437A1BB99A
:1026780047F6FF7000B270470229F9D800B5034643
:1026880085B04A000132197A006802230093D2B259
:1026980003AB00F0F3FA9DF80D309DF80C208DF88F
:1026A8000D208DF80C30BDF80C0000B205B05DF8B7
:1026B80004FB00BF0246407A00B970470B46106819
:1026C800117A0E2200F046BB70B50C460546244927
:1026D800FFF7A6FA28460321FFF7C4FA217A02F089
:1026E800A1FB20490646FFF79BFA30460021FFF779
:1026F800B9FA00220646217A206800F06FFA0146EE
:10270800304602F08FFB18490646FFF789FA2A225D
:10271800217A206800F062FA0146304602F082FB16
:1027280012490646FFF77CFA2B22217A206800F02E
:1027380055FA0146304602F075FB0D490646FFF78B
:102748006FFA0E22217A206800F048FA01463046D6
:1027580002F068FB0221FFF785FA284670BD00BF2A
:10276800BC620008D4620008E0620008F062000859
:1027780000630008F0B5044683B02E4E089F22720D
:102788000D46012000FA02F1B54200FA03F2637225
:10279800656027606181A28139D0274B9D423AD07C
:1027A800264B9D423CD0264B9D423ED0A289638950
:1027B80002A913439BB241F8083D2846002201258F
:1027C80002238DF807208DF805308DF804508DF818
:1027D8000650FEF707F8284600F05AFD206150B170
:1027E800A2896389616813434A699BB213432046EF
:1027F8004B6103B0F0BD2568002DF1D02846114982
:10280800FFF70EFA28460621FFF72CFAE8E70146FB
:10281800FEF7E0F9CAE701460220FEF7DBF9C5E753
:1028280001460420FEF7D6F9C0E701460820FEF766
:10283800D1F9BBE700000240000402400008024052
:10284800000C02401463000800B54268418913690E
:10285800194283B009D1006800283ED02149FFF70A
:10286800DFF9012003B05DF804FB116983890B428D
:102878002AD008215383ADF80410BDF804309BB268
:1028880053B1BDF80430013B9BB2ADF80430BDF83C
:1028980004309BB2002BF4D1438953830823ADF84D
:1028A8000630BDF806309BB253B1BDF80630013B87
:1028B8009BB2ADF80630BDF806309BB2002BF4D1C0
:1028C800002003B05DF804FB006830B10649FFF74B
:1028D800A7F9012003B05DF804FB012003B05DF8FF
:1028E80004FB00BF286300083063000800B5436894
:1028F800428919690A4283B012D108211A83ADF8B6
:102908000610BDF806309BB253B1BDF80630013B46
:102918009BB2ADF80630BDF806309BB2002BF4D15F
:10292800FFF792FF03B05DF804FB00BF82B0426876
:10293800418911830823ADF80430BDF804309BB2F7
:1029480053B1BDF80430013B9BB2ADF80430BDF87B
:1029580004309BB2002BF4D1838913830823ADF88C
:102968000630BDF806309BB253B1BDF80630013BC6
:102978009BB2ADF80630BDF806309BB2002BF4D1FF
:10298800002002B0704700BFF0B5426843890E4688
:1029980011690B4285B0044619D0006820B1474937
:1029A800FFF73EF96268638953830623ADF8043064
:1029B800BDF804309BB253B1BDF80430013B9BB263
:1029C800ADF80430BDF804309BB2002BF4D10A23D3
:1029D800B4F80CE0A2F818E0ADF80630BDF80630FF
:1029E8009BB253B1BDF80630013B9BB2ADF806303F
:1029F800BDF806309BB2002BF4D1082180250020B9
:102A0800062763891383ADF80870BDF808309BB2B8
:102A180053B1BDF80830013B9BB2ADF80830BDF8A2
:102A280008309BB2002BF4D113691EEA030F00D0C3
:102A3800284363895383ADF80A70BDF80A309BB206
:102A480053B1BDF80A30013B9BB2ADF80A30BDF86E
:102A58000A309BB2002BF4D101394FEA5505D0D189
:102A68000EB1A3895383638913830623ADF80C3011
:102A7800BDF80C309BB253B1BDF80C30013B9BB292
:102A8800ADF80C30BDF80C309BB2002BF4D1638943
:102A980053830623ADF80E30BDF80E309BB253B108
:102AA800BDF80E30013B9BB2ADF80E30BDF80E30CC
:102AB8009BB2002BF4D105B0F0BD00BF386300080D
:102AC80070B4446885B0082206250A26ADF804507B
:102AD800BDF804309BB253B1BDF80430013B9BB242
:102AE800ADF80430BDF804309BB2002BF4D10B06CE
:102AF80071D483896383ADF80660BDF806309BB254
:102B080053B1BDF80630013B9BB2ADF80630BDF8B5
:102B180006309BB2002BF4D143892383ADF80850CB
:102B2800BDF808309BB253B1BDF80830013B9BB2E9
:102B3800ADF80830BDF808309BB2002BF4D1013A4B
:102B480049004389638312F0FF02C9B2BED10A2348
:102B580082892283ADF80A30BDF80A309BB253B19E
:102B6800BDF80A30013B9BB2ADF80A30BDF80A3017
:102B78009BB2002BF4D1438923830623ADF80C3094
:102B8800BDF80C309BB253B1BDF80C30013B9BB281
:102B9800ADF80C30BDF80C309BB2002BF4D1438952
:102BA800216963830623ADF80E30BDF80E300A4262
:102BB8009BB20CBF0120002053B1BDF80E30013B81
:102BC8009BB2ADF80E30BDF80E309BB2002BF4D19D
:102BD80005B070BC7047838923838CE770B50D46B8
:102BE800002104460B46164600694FF0FF3200F0FC
:102BF800D1FB2046FFF728FE20462946FFF760FF55
:102C080060B9206810B11B49FFF70AF80021206954
:102C18000A460B4600F0AEFA012070BD3146204648
:102C2800FFF74EFF0028ECD02046FFF75FFE204656
:102C380045F00101FFF744FF60B9206810B10E4963
:102C4800FEF7EEFF002120690A460B4600F092FAD3
:102C5800FF2070BD00212046FFF796FE054620465E
:102C6800FFF764FE002120690A460B4600F082FA4D
:102C7800284670BD40630008486300082DE9F0410C
:102C880088460021044615461F464FF0FF320B4682
:102C980000699DF8186000F07DFB2046FFF7D4FD21
:102CA80020464146FFF70CFF70B9206810B127494C
:102CB800FEF7B6FF002120690A460B46012500F001
:102CC80059FA2846BDE8F08129462046FFF7F8FE64
:102CD80005460028E9D02046FFF708FE204648F0C0
:102CE8000101FFF7EDFE68B9206810B11849FEF739
:102CF80097FF002120690A460B4600F03BFA284658
:102D0800BDE8F081012E0ED0023EF6B207EB0608B0
:102D18007D1E20460121FFF737FE05F8010F4545C6
:102D2800F7D10136374400212046FFF72DFE3870D1
:102D38002046FFF7FBFD002120690A460B460025C7
:102D480000F018FA2846BDE8F08100BF506300087B
:102D580048630008F8B50D460021044616461F468C
:102D68004FF0FF320B46006900F014FB2046FFF7D6
:102D78006BFD20462946FFF7A3FE60B9206810B115
:102D88001049FEF74DFF002120690A460B4600F066
:102D9800F1F90120F8BD31462046FFF791FE0028E1
:102DA800ECD039462046FFF78BFE0028E6D02046B7
:102DB800FFF7BCFD002120690A460B4600F0DAF94E
:102DC8000020F8BD586300082DE9F0410C460021A9
:102DD800054690461E464FF0FF320B4600699DF8A7
:102DE800187000F0D7FA2846FFF72EFD284621462E
:102DF800FFF766FE78B9286810B12449FEF710FF7E
:102E0800002128690A460B464FF0010800F0B2F984
:102E18004046BDE8F08141462846FFF751FE80460E
:102E28000028E8D000241FB921E0DCB2BC421ED043
:102E3800284616F8011BFFF743FE631C0028F4D14F
:102E48002E685EB130461249FEF7EAFE214630464A
:102E580001F0E8FF03683E215B6898470021286974
:102E68000A460B4600F086F94046BDE8F081284640
:102E7800FFF75CFD002128690A460B464FF0000861
:102E880000F078F94046BDE8F08100BF60630008B3
:102E98006863000838B504460D46FFF7D5FC294697
:102EA8002046FFF70DFE05462046FFF73FFD284662
:102EB80038BD00BF2DE9F0410D4607462349284695
:102EC800FEF7AEFE03212846FEF7CCFE0621FEF7EC
:102ED800C9FE4FF000085FFA88F1284601F0A2FF0A
:102EE800036830215B684FEA08169847F6B2002459
:102EF80006E0023428465B68E4B29847102C15D0E7
:102F08002B6828465B682021984744EA0601384622
:102F1800FFF7C0FF40212B680028EAD10234284679
:102F28005B682D21E4B29847102CE9D108F101081B
:102F380028460621FEF796FEB8F1100FCBD1284699
:102F48000221BDE8F041FEF78DBE00BF6C630008AA
:102F580082B0ADF80610BDF806309BB253B1BDF88B
:102F68000630013B9BB2ADF80630BDF806309BB287
:102F7800002BF4D102B0704738B51546026C0446F0
:102F880032B90568002D2BD0A36B0133A36338BD7C
:102F98007DB9806801F0D6FFA168236C62680B4494
:102FA8009342A360F0D32368A360A36B0133A363A8
:102FB80038BDC06801F0C6FF236CE26821685B4237
:102FC8001A448A42E26002D262681344E360022D26
:102FD800DAD1A36B002BD7D0A36B013BA363D3E754
:102FE800406801F08FF96560CEE700BF30B404682F
:102FF8006CB1C368026C45681344AB42C36024BF1C
:10300800C4602346084630BC194601F09BBF30BC5B
:10301800704700BF38B5044601F018FAA36C002BBE
:1030280014DD636A93B104F1240507E0A36C013B46
:10303800A364A36C002B09DD636A3BB1284601F049
:1030480051F80028F2D001F0FDF8EFE74FF0FF3318
:10305800A36401F00DFA01F0F9F9636C002B14DD9B
:10306800236993B104F1100507E0636C013B6364C5
:10307800636C002B09DD23693BB1284601F032F867
:103088000028F2D001F0DEF8EFE74FF0FF33636479
:10309800BDE8384001F0ECB938B5044690B30D46A8
:1030A80001F0D4F9226CE36B2068A06003FB02F303
:1030B8009A1A0244034400214FF0FF30A163E260F2
:1030C80060646360A0648DB923691BB901F0D0F90D
:1030D800012038BD04F1100001F004F80128F5D1F1
:1030E80001F086F901F0C4F9012038BD04F110009F
:1030F80000F0A8FA04F1240000F0A4FA01F0B8F9ED
:10310800012038BD01F080F9FEE700BF70B5054623
:10311800B8B14C200E4600F0E3FA044688B106FB2D
:1031280005F0013000F0DCFA206038B1E563266470
:1031380020460121FFF7B0FF204670BD204600F071
:10314800FDFA01F061F9FEE710B560B188420C465E
:1031580002D201F059F9FEE700210222FFF7D6FF5B
:1031680020B1846310BD01F04FF9FEE701F04CF97E
:10317800FEE700BF2DE9F04385B004460192002820
:1031880079D088461E4600294DD0022E5ED00027F1
:103198004FF0000925E001F06BF900F039FD01F06E
:1031A80055F9636C013308BFC4F84490A36C01332C
:1031B80008BFC4F8489001F05BF902A801A901F022
:1031C80009F8002848D101F041F9A26BE36B9A4253
:1031D80018D001F04DF92046FFF71CFF00F0D8FD8C
:1031E800012701F033F9A26BE36B9A4221D3022E37
:1031F8001FD0019D002D38D0002FCCD102A800F09F
:10320800D9FFC8E701F034F904F11000019900F082
:1032180011FF2046FFF7FEFE00F0BAFD0028DFD1BF
:1032280001F0E6F8DCE7036C002BAED001F0ECF817
:10323800FEE7414632462046FFF79EFE636AEBB939
:1032480001F016F9012005B0BDE8F083E36B012B0E
:103258009DD001F0D9F8FEE72046FFF7DBFE00F02D
:1032680097FD002005B0BDE8F08301F001F928467C
:1032780005B0BDE8F08301F0C7F8FEE704F12400CB
:1032880000F030FF0128DBD101F0B2F8D8E700BF29
:1032980038B54C2000F024FA0446D8B100254FF088
:1032A800FF3301228563C26343644560836405601C
:1032B8008560C5600564103000F0C4F904F124008D
:1032C80000F0C0F9204629462A462B46FFF752FF50
:1032D800204638BD01F098F8FEE700BF2DE9F0411F
:1032E8000446A8B30E461746984600293CD0B8F1C4
:1032F800020F0FD001F06AF901F086F8A36BE26BB8
:103308009A42054612D80024284601F0ADF8204616
:10331800BDE8F081E36B012B02D001F075F8FEE700
:1033280001F054F901F070F8A36B054631464246A6
:103338002046FFF721FEA36C01330CD0A36C0133A8
:10334800A3642846012401F08FF82046BDE8F081E7
:1033580001F05AF8FEE7636A63B92846012401F0D0
:1033680083F82046BDE8F081036C002BBFD001F044
:103378004BF8FEE704F1240000F0B4FE0028ECD07E
:103388000124002FC0D028463C6001F06DF820468B
:10339800BDE8F0812DE9F04385B00446019200288C
:1033A80000F091800F469946002949D000264FF039
:1033B800000811E001F05CF82368002B47D004F105
:1033C8002400019900F036FE2046FFF723FE00F0A6
:1033D800DFFC002831D0012601F038F8A36B002B60
:1033E8004CD1019D002D43D01EB301F041F800F0EF
:1033F8000FFC01F02BF8636C013308BFC4F844805C
:10340800A36C013308BFC4F8488001F031F802A862
:1034180001A900F0DFFE10BB01F018F8A36B002B28
:10342800C8D001F025F82046FFF7F4FD00F0B0FC05
:10343800D1E702A800F0BEFED7E700F0D9FFCAE73F
:10344800036C13B100F0E0FFFEE70E46AFE700F0B3
:10345800FDFF606800F01AFF01F00AF8AFE72046A8
:10346800FFF7D8FD00F094FC002005B0BDE8F0831C
:1034780000F0FEFF284605B0BDE8F0833946204637
:10348800E568FFF7B3FDB9F1000F0FD1A36B226810
:10349800013BA36312B900F0F3FE60602369ABB986
:1034A80000F0E6FF012005B0BDE8F083636AE5603F
:1034B800002BF5D004F1240000F014FE0028EFD012
:1034C80000F096FFECE700F09FFFFEE704F1100024
:1034D80000F008FE0128E3D1F2E700BFF8B5044682
:1034E80078B10E46174611B301F070F800F08CFF62
:1034F800A36B054643B91C46284600F0B5FF204695
:10350800F8BD00F081FFFEE731462046FFF76EFD6B
:10351800A36B013BA363636C01330ED0636C01336F
:1035280063642846012400F09FFF2046F8BD036C21
:10353800002BD9D000F068FFFEE72369002BF0D0FC
:1035480004F1100000F0CEFD0028EAD0002FE8D0EA
:10355800012428463C6000F087FF2046F8BD00BFE4
:10356800F8B5044668B10E46D1B101F02FF800F065
:103578004BFFA56B07463DB9384600F075FF284656
:10358800F8BD00F041FFFEE731462046E668012518
:10359800FFF72CFD3846E66000F066FF2846F8BDC8
:1035A800036C002BE1D000F02FFFFEE710B50446B6
:1035B80030B100F04BFFA46B00F05AFF204610BD5D
:1035C80000F022FFFEE700BF38B5054640B100F025
:1035D8003DFFAC6BEB6B1C1B00F04AFF204638BD6F
:1035E80000F012FFFEE700BF08B1806B704708B516
:1035F80000F00AFFFEE700BF10B5044640B10068BE
:1036080008B100F09BF82046BDE8104000F096B8DD
:1036180000F0FAFEFEE700BF20B1806BB0FA80F040
:103628004009704708B500F0EFFEFEE730B1826B45
:10363800C06B101AB0FA80F04009704708B500F066
:10364800E3FEFEE700F108034FF0FF31002281603E
:1036580080E80C00C3600361704700BF002303616A
:10366800704700BF90E80C0010B49C688C609C68A0
:103678004B600132616099605DF8044B086102603B
:10368800704700BF30B40D686B1C11D000F1080200
:1036980000E01A4653681C68A542FAD204684B60D9
:1036A800013499608A6051600861046030BC7047D9
:1036B80002695368F2E700BF43688168026910B481
:1036C8009960816854684B601368844208BF5160F0
:1036D800013B002101615DF8044B136018467047F7
:1036E800430710B504461CBF20F00704083400F057
:1036F8008FFA104A1368B3B10F49D1F85C3D4CF208
:10370800F7701C44844209D8A34207D21268C1F852
:103718005C4DD41800F03CFB204610BD002400F09E
:1037280037FB204610BD02F10C0323F0070313609A
:10373800E2E700BF5C00002004BB002018B108B518
:1037480000F062FEFEE77047024B0022C3F85C2DD2
:10375800704700BF04BB0020034BD3F85C0DC0F5D5
:103768004740F830704700BF04BB002008B5034C41
:103778002368012BFDD900F03BFEF9E764C800205F
:10378800074B5A6E126822B9064B4FF0FF321A6087
:1037980070475A6E034BD268D26852681A607047F5
:1037A80064C800201400002008B568B1084A4369BD
:1037B800934201D0002008BD806A14339842F9D0A2
:1037C800B0FA80F0400908BD00F01EFEFEE700BF19
:1037D800CCC800200E4BD3F89010D3F89420486042
:1037E80090420DD310B50446586ED3F890100431AA
:1037F800FFF748FF074B1A68944238BF1C6010BD9A
:10380800D3F89800D3F890100431FFF73BBF00BFFE
:1038180064C80020140000202DE9F84F0AAE96E88D
:10382800400A8046002800F08480042E02D900F067
:10383800EBFDFEE744200F4615469A46FFF750FF7A
:103848000446002800F0B080BBF1000F00F0A08013
:10385800C0F830B058464FEA850B5A46A52102F009
:103868006DFA05F18045236B013D03EB850323F0D9
:10387800070504F133027B1E093713F8011F02F80C
:10388800011F197809B1BB42F7D10023271D84F81D
:103898003D303846E6622664FFF7E0FE04F1180082
:1038A800FFF7DCFEC6F10503246164622846414641
:1038B8005246A36100F072FD2060B9F1000F01D0FB
:1038C800C9F800403A4D00F0C1FDD5F89C300133ED
:1038D800C5F89C30D5F890309BB3D5F8C83033B9CB
:1038E800D5F89030DB6A9E4228BFC5F89040E06A60
:1038F800D5F8D0102E4AD5F8CC30884288BFC2F807
:10390800D00000EB8000013305EB80003946C5F894
:10391800CC30FFF7A7FE00F0ABFDD5F8C820244B4C
:1039280022B1D3F89030DB6A9E4205D80120BDE869
:10393800F88F00F069FDFEE700F05AFD0120BDE8B0
:10394800F88FC5F89040D5F89C30012BCFD1A84608
:1039580005F16409404608F11408FFF773FEC845ED
:10396800F8D1DFF85080404608F11409FFF76AFEE5
:103978004846FFF767FEA8F12400FFF763FEA8F1A9
:103988003800FFF75FFEC5F86480C5F89890AEE789
:103998004FEA850B5846FFF7A3FE206300287FF403
:1039A8005CAF2046FFF7CAFE4FF0FF30BDE8F88F46
:1039B80064C8002004C9002010B5044600F046FD84
:1039C80024B1E46A00F054FD204610BD034BD3F83F
:1039D8009040E46A00F04CFD204610BD64C8002009
:1039E80004292DE9F0410D4634D8044600F02EFD97
:1039F8009CB3226C954222D0274F24D9D7F8903017
:103A08009C4247D0D7F89030DE6AB54234BF0026D2
:103A18000126E36A25649A42A26908BFE56203EBBE
:103A28008303002A6269DFF87080A8BFC5F1050525
:103A380007EB8303A8BFA5619A4218D08EB9BDE8E9
:103A4800F04100F015BDD7F89060A61BB6FA86F6CF
:103A58007609DEE700F0D8FCFEE70F4BD3F890407C
:103A6800C7E700F0C5FCBDE8F04100F001BD251D29
:103A78002846FFF721FEE06AD8F8D030984201D9ED
:103A8800C8F8D00000EB800007EB80002946FFF75C
:103A9800E9FDD3E70026BCE764C8002070B50446FA
:103AA80080B1174DD5F8903098420AD000F0CEFC7E
:103AB8002046FFF779FE012807D0BDE8704000F0E6
:103AC800D7BC70BD00F0A0FCFEE7261D3046FFF70E
:103AD800F3FDE06AD5F8D030984288BFC5F8D00029
:103AE80000EB800005EB80003146FFF7BBFDD5F801
:103AF8009030E26ADB6A9A42DFD300F079FCDCE7B7
:103B080064C800202DE9F0410446A0B300F05EFD32
:103B180000F07AFC80462046FFF746FE012806D0D2
:103B28004046002600F0A0FC3046BDE8F0811A4D62
:103B3800D5F8D43013BBD5F89020E36AD66A271D90
:103B4800B342384634BF00260126FFF7B5FDE06AC8
:103B5800D5F8D030984288BFC5F8D00000EB800077
:103B680005EB80003946FFF77DFD404600F07CFC00
:103B78003046BDE8F08100F047FCFEE705F17C0027
:103B880004F11801FFF76EFD0026404600F06CFCBA
:103B98003046BDE8F08100BF64C8002070B5124E01
:103BA8001248134984B0002406F1D8030193009405
:103BB8000294039423464FF4A072FFF72DFE0128C8
:103BC800054605D008B104B070BD00F01DFCFEE745
:103BD80000F01AFCC6F8C850C6F8944004B0BDE816
:103BE800704000F0A1BC00BF64C800207537000811
:103BF8008063000808B500F007FC044B0022C3F8F6
:103C0800C820BDE8084000F015BC00BF64C800200B
:103C1800034AD2F8D4300133C2F8D430704700BF19
:103C280064C8002010B500F011FC034BD3F8944091
:103C380000F01EFC204610BD64C8002010B500F03E
:103C4800C5FC00F0E1FB034BD3F8944000F00CFCFA
:103C5800204610BD64C80020014BD3F89C00704773
:103C680064C8002008B13430704708B5044BD3F855
:103C7800900010B900F0C8FBFEE7343008BD00BF63
:103C880064C8002008B5044BD3F8D80000B108BDBB
:103C980000F0BAFBFEE700BF64C800202DE9F0473A
:103CA800394CD4F8D430CBB9D4F894300133C4F8B3
:103CB8009430D4F89480B8F1000F1DD0334F3B688E
:103CC800984520D20025D4F89030DB6A03EB8303B3
:103CD80054F82330022B28BF012505E0D4F8E03042
:103CE8000133C4F8E0300025D4F8E430002B18BFC5
:103CF80001252846BDE8F087636E1B68002B35D088
:103D080000F082FBFEE7DFF88090002526E0D9F876
:103D18006430DB68DE68736806F1040A984550462B
:103D280022D3FFF7C9FCB36A06F118000BB1FFF7FD
:103D3800C3FCF36AD4F8D02003EB830093425146C6
:103D480004EB800088BFC9F8D030FFF78BFCD4F8AB
:103D58009030F26ADB6A9A4228BF0125636E1B68BD
:103D6800002BD4D14FF0FF333B60ACE7636ED4F83F
:103D780098206266C4F89830D4F8DC300133C4F86F
:103D8800DC30FFF7FDFC99E764C800201400002030
:103D98002DE9F843324CD4F8D43013B900F034FB91
:103DA800FEE700F053FBD4F8D430013BC4F8D4301C
:103DB800D4F8D4309BBBD4F89C3083B32646A146B4
:103DC8004FF0010820E0D6F88830DD682F1D05F196
:103DD8001800FFF771FC3846FFF76EFCEB6AD6F85F
:103DE800D02003EB83009342394604EB800088BF60
:103DF800C6F8D030FFF736FCD4F89030EA6ADB6AB0
:103E08009A4228BFC9F8E480E26F154B002ADAD13C
:103E1800D3F8E0204AB9D4F8E440012C19D00024A2
:103E280000F026FB2046BDE8F883D3F8E030002BED
:103E3800F1D00125FFF732FF08B1C4F8E450D4F8F7
:103E4800E030013BC4F8E030D4F8E030002BF1D189
:103E5800E1E700F0CDFA00F00BFB2046BDE8F8835F
:103E680064C8002038B590B371B31A4BD3F8D42086
:103E78003ABBD3F8D44002680134C3F8D440D3F82D
:103E88009450954202EB010410D3A24201D8A542F6
:103E98000ED2D3F890300460181DFFF70DFC2046B1
:103EA800FFF798FCFFF774FF38B138BDA242EED88F
:103EB8000460FFF76DFF0028F7D1BDE8384000F037
:103EC80097BA00F0A1FAFEE700F09EFAFEE700F0CC
:103ED8009BFAFEE764C80020C8B1114BD3F8D41090
:103EE80010B50246A9B9D3F8D4100131C3F8D410DB
:103EF800D3F89440D3F8900014440430FFF7DCFB67
:103F08002046FFF767FCFFF743FF28B110BD00F01C
:103F18006FBA00F079FAFEE7BDE8104000F068BA21
:103F280064C8002008B5204BD3F8D42072BBC3F86E
:103F3800E420D3F8D02002EB820253F82220A2B961
:103F4800D3F8D02019461AB924E0D1F8D0200AB302
:103F5800D3F8D020013AC3F8D020D3F8D02002EB10
:103F6800820253F82220002AEFD0D3F8D02002EBA7
:103F780082029200981808324168496841601A44E0
:103F880091420AD0CA68C3F8902008BD0122C3F83C
:103F9800E42008BD00F038FAFEE749684160CA68C5
:103FA800C3F8902008BD00BF64C80020F8B50446D7
:103FB8001F4F00F04BFA44B3261D3046FFF77CFB39
:103FC800A36A1BB104F11800FFF776FB184D3146C0
:103FD80005F16800FFF746FB00F04AFAD7F8903081
:103FE8009C42D5F8C83009D003B9F8BD00F02EFAC4
:103FF800FFF7C6FBBDE8F84000F03ABA43B1D5F880
:10400800D4306BB100F000FAFEE7D7F89040D3E760
:10401800D5F89C20A96E914206D1C5F89030F8BD1C
:10402800BDE8F84000F0E4B9BDE8F840FFF77ABF12
:1040380064C8002038B5A0B1104C0D46D4F89010D3
:104048001831FFF71FFBD4F890000430FFF734FB5A
:104058006B1C09D0D4F894002844BDE83840FFF719
:10406800B9BB00F0D1F9FEE7D4F8901004F168006C
:104078000431BDE83840FFF7F5BA00BF64C8002036
:1040880070B500B3164CD4F8D43013B900F0BCF9AD
:10409800FEE7D4F890601546D4F8902041F000432C
:1040A800B36102F11801FFF7DDFAD4F8900004308B
:1040B800FFF702FB6B1C09D0D4F894002844BDE834
:1040C8007040FFF787BB00F09FF9FEE7D4F8901027
:1040D80004F168000431BDE87040FFF7C3BA00BFBF
:1040E80064C80020C36870B5DD6865B305F11806BB
:1040F800164C3046FFF7E0FAD4F8D430EBB92E1D51
:104108003046FFF7D9FAE86AD4F8D030984288BF29
:10411800C4F8D00000EB800004EB80003146FFF7C4
:10412800A1FAD4F89030E96ADA6A084B914286BF5E
:104138000120C3F8E400002070BD314604F17C0082
:10414800FFF790FAEDE700F05FF9FEE764C800209A
:1041580070B5174CD4F8D43023B3C56841F0004388
:10416800036015B32E1DFFF7A7FA3046FFF7A4FA30
:10417800E86AD4F8D030984288BFC4F8D00000EB81
:10418800800004EB80003146FFF76CFAD4F89030D9
:10419800E96ADA6A064B914286BF0120C3F8E40057
:1041A800002070BD00F030F9FEE700F02DF9FEE7C1
:1041B80064C8002008B538B1054BD3F8DC20D3F823
:1041C800943080E80C0008BD00F01EF9FEE700BF3F
:1041D80064C8002070B5044678B30E4651B300F0A9
:1041E80035F932681648531CD0F894501DD0D0F8D1
:1041F800DC3021689942636801D09D4210D2E91AE7
:104208008A420DD9521BD0F8DC101344D0F8942000
:104218003360002584E8060000F02AF9284670BDBE
:10422800012500F025F9284670BD002500F020F989
:10423800284670BD00F0E8F8FEE700F0E5F8FEE774
:1042480064C80020024B0122C3F8E420704700BF75
:1042580064C8002060B1016B0B78A52B0CD14B1CF6
:10426800581A13F8012BA52AFAD0C0F38F0070470B
:10427800024BD3F89000EEE70020704764C8002096
:10428800014BD3F89000704764C80020002835D04F
:10429800F8B51B4CC36AD4F89020D26A934214D262
:1042A8008269002A05DBD4F89020D26AC2F105029F
:1042B800826103EB83034269114D04EB83039A4245
:1042C80004D0D5F89030DB6AC362F8BD061D0746F6
:1042D8003046FFF7F1F9D5F89020D5F8D030D06AFC
:1042E800F862984201D9C5F8D00000EB800004EBD1
:1042F80080003146BDE8F840FFF7B4B9704700BF09
:1043080064C8002010B338B5C26A036C9A421CD046
:104318000446051D2846FFF7CFF9A269236C0C480F
:10432800E362002AA4BFC3F10502A261D0F8D0203D
:10433800934288BFC0F8D03003EB830300EB8300BF
:104348002946BDE83840FFF78DB938BD704700BF32
:1043580064C80020064BD3F89010D3F89020D3F807
:1043680090308869DB6AC3F105039361704700BF29
:1043780064C80020A5480068006880F3088862B611
:10438800BFF34F8FBFF36F8F00DF00BFDFF88002EE
:10439800016841F470010160704700BF30B40A4BF6
:1043A8000A4C18604FF080756FF0020340F8045C07
:1043B80040F80C4C40F8081C40F8202C40F8243CED
:1043C80030BC4438704700BF54C90020214400085D
:1043D800064B19680868B0E8F04F80F30988BFF306
:1043E8006F8F4FF0000080F311887047F4C80020E9
:1043F800044B4FF080521A60BFF34F8FBFF36F8F9B
:10440800704700BF04ED00E0EFF311804FF050015A
:1044180081F311887047002008B5054B1B680133EC
:1044280002D0FFF7F1FFFEE7FFF7EEFFFEE700BF60
:104438001800002008B5044B1B68B3F57A7F02D03A
:10444800FFF7E2FFFEE708BD1800002008B5FFF7F8
:10445800DBFF044A136801331360BFF34F8FBFF3C8
:104468006F8F08BD1800002080F31188704700BFC7
:1044780008B5074B186818B10138186018B108BD9D
:10448800FFF7C2FFFEE7BDE80840FFF7EDBF00BF3A
:1044980018000020EFF30980BFF36F8F124B1A68E2
:1044A8001EF0100F08BF20ED108A20E9F04F1060B1
:1044B8004DF8043D4FF0500080F31188FFF732FDAE
:1044C8004FF0000080F3118808BC19680868B0E84C
:1044D800F04F1EF0100F08BFB0EC108A80F3098867
:1044E800BFF36F8F704700BFF4C8002008B5FFF70F
:1044F8008BFFFFF7D3FB18B1044B4FF080521A60C3
:104508000020BDE80840FFF7AFBF00BF04ED00E0A2
:104518000349044B40F24F10032208601A607047A9
:1045280014E000E010E000E010B5234B23481A78AF
:1045380082B0FF21D2B2019219701B78DBB28DF8DC
:1045480003309DF803309DF8031003F05003072251
:104558000906037042600ED5062200E00A469DF85F
:1045680003305B00DBB28DF803309DF803301B0687
:1045780002F1FF31F2D401990F4C114BC9B22170ED
:10458800196841F4700119601968120241F070410C
:10459800196002F4E0624260FFF7BAFF094B00229B
:1045A8001A60FFF7F3FE084A136843F040431360AC
:1045B800FFF7E0FEFFF730FF00E400E04CC9002001
:1045C80020ED00E01800002034EF00E008B5EFF31C
:1045D80005820F2A08D80A4B0A495A680B6803F45F
:1045E800E063934209D808BD0749054B525C197826
:1045F8009142F1D9FFF708FFFEE7FFF705FFFEE755
:104608004CC900200CED00E0F0E300E008ED00E00C
:1046180088ED00E030B4264C264BD4F88820264D8F
:104628002648274942F47002C4F888201A680024F2
:1046380042F001021A609C601A6822F0847222F427
:1046480080321A605D601A6822F480221A60DC6089
:104658001A6C42F080521A64026842F48042026086
:104668009A689A609A689A609A6842F480529A6046
:1046780059601A6842F080721A6019680D4A8901F7
:10468800FBD5104B40F202711960936823F00303C5
:104698009360936843F002039360936803F00C03FC
:1046A800082BFAD1024B4FF000629A6030BC704779
:1046B80000ED00E000380240103000240070004097
:1046C80010640107003C024016498B6803F00C0394
:1046D800042B22D0082B09D0134B124A1349926895
:1046E800C2F303128A5CD3400B6170474B68486879
:1046F8005B0214D44A680C49C2F3881200F03F00E8
:10470800B1FBF0F303FB02F2064B5B68C3F3014312
:1047180001335B00B2FBF3F3DFE7054BDDE7002273
:10472800F2E700BF003802400024F4001C0000201B
:1047380040787D0140F0BF60024B40F40030D86003
:10474800704700BF00ED00E0C3785BB903781848F4
:104758005A09203203F01F03012101FA03F340F83C
:1047680022307047134BF0B4D968457882780478C2
:104778000F4EC943C1F30221C1F10407FFB20F2351
:10478800BD400B411340E9B20B4304F1604202F50E
:1047980061421B01DBB282F800330378012203F087
:1047A8001F015B098A4046F82320F0BC704700BF10
:1047B80000E100E000ED00E021F0604121F07F0120
:1047C800014B08439860704700ED00E0044A136904
:1047D80019B923EA00001061704718431061704747
:1047E80000ED00E0044A136804280CBF43F00403FA
:1047F80023F004031360704710E000E008B52B4B6A
:10480800984219D02A4B984220D02A4B984229D056
:10481800294B984232D0294B98423BD0284B98429A
:1048280000D008BD20200121FCF740FA20200021FB
:10483800BDE80840FCF73ABA10200121FCF736FA27
:1048480010200021BDE80840FCF730BA4FF40030D2
:104858000121FCF71FFA4FF400300021BDE80840A1
:10486800FCF718BA4FF480200121FCF713FA4FF433
:1048780080200021BDE80840FCF70CBA4FF4002066
:104888000121FCF707FA4FF400200021BDE8084099
:10489800FCF700BA4FF480100121FCF7FBF94FF444
:1048A80080100021BDE80840FCF7F4B90010014071
:1048B8000044004000480040004C004000500040C8
:1048C80000140140028A8B88F0B592B2CE880F8915
:1048D80004460D4622F440523243A889498922826F
:1048E800A2893B4392B20B4322F4B05222F00C024D
:1048F8009BB21343A381A38A9BB223F4407303435F
:1049080085B0A3826846FCF7EFF81D4B9C4229D07E
:1049180003F580639C4225D0029AA389A6891BB21D
:10492800002B2B6802EB8202B4BF5B009B0002EBFA
:104938008202B2FBF3F0134A36B2A2FB00356D09CE
:104948006423002E05FB13034FEA05150CDB1B013E
:104958003233A2FB0323C3F343132B439BB22381BC
:1049680005B0F0BD039AD8E7D9003231A2FB013176
:10497800C1F3421242EA05039BB2238105B0F0BDA0
:10498800001001401F85EB5100234FF416510C22F3
:10499800016042818380C38003818381704700BFA7
:1049A80030B40A884D888C88038AC9882A432243F0
:1049B8000A439BB292B223F470631343038230BC60
:1049C800704700BF0023038043808380C380704703
:1049D800838929B923F400531B041B0C8381704776
:1049E8009BB243F400538381704700BF038B03F4E9
:1049F8007F430383038B9BB219430183704700BF36
:104A0800838919B9C3F30E03838170476FEA43435F
:104A18006FEA53439BB28381704700BF838A29B9E9
:104A280023F400631B041B0C838270479BB243F47E
:104A380000638382704700BFC1F30801818070471B
:104A48008088C0F308007047038A23F00F031B0413
:104A58001B0C0382038A9BB219430182704700BF73
:104A6800838929B923F002031B041B0C8381704737
:104A78009BB243F002038381704700BF838923F40C
:104A880000631B041B0C838183899BB219438181BA
:104A9800704700BF038A23F020031B041B0C03820A
:104AA800038A9BB219430182704700BF038A29B960
:104AB80023F480431B041B0C038270479BB243F40E
:104AC80080430382704700BF83899BB243F0010390
:104AD80083817047838A29B923F008031B041B0CC0
:104AE800838270479BB243F008038382704700BFFC
:104AF800038BDBB20383038B9BB243EA012101835F
:104B0800704700BF838A29B923F020031B041B0CBC
:104B1800838270479BB243F020038382704700BFB3
:104B2800838A29B923F010031B041B0C8382704766
:104B38009BB243F010038382704700BF838A23F03F
:104B480004031B041B0C8382838A9BB21943818252
:104B5800704700BF838A29B923F002031B041B0C8A
:104B6800838270479BB243F002038382704700BF81
:104B7800838A9BB21AB923EA0101818270471943DB
:104B88008182704710B401F01F04C1F34211012360
:104B9800012903FA04F311D002290CBF1030143094
:104BA80032B902685DF8044B22EA030303607047D8
:104BB80002685DF8044B1343036070470C30EFE75D
:104BC8000388194214BF012000207047C94389B2E5
:104BD80001807047C1F3421210B4012301F01F0491
:104BE800012A03FA04F316D0022A0CBF028A828A29
:104BF80092B21340028892B24BB1090A01238B404A
:104C0800134214BF012000205DF8044B704718467A
:104C18005DF8044B7047828992B21340EAE700BFFF
:104C2800090A01238B40DB439BB20380704700BF16
:104C3800F0B5437987B00646002B35D10279022AB0
:104C48000F461CD001AD1B482C4697FBF2F302FB24
:104C5800137101449FB2C97B04F8011B002BF4D1E6
:104C6800AC4209D9013C01E014F8011D3368304613
:104C78005B689847AC42F7D1304607B0F0BD1025C5
:104C88004FF4004433683C4230464FF0310111BFC5
:104C98005B685B68304630219847013D4FEA540411
:104CA800F0D1304607B0F0BD00F066F8304607B0E6
:104CB800F0BD00BF3460000838B50D460446FDF766
:104CC80045F82880204638BDF0B52A4B0C460646E4
:104CD800174693E8070085B001AB03C3092C1A8077
:104CE80027D0042C38D09CB1042C13D8651E07EBB0
:104CF800470704ABEDB21F4417F80A7C01350024BE
:104D0800336801345B68304639469847AC42F7D17E
:104D180005B0F0BD04AB07EB47071F44336817F82D
:104D28000B1C5B6830469847052CF1D0A51FEDB2E7
:104D3800E2E704AB07EB47071F44336817F80A1C80
:104D48005B6830469847336817F80C1C5B68304638
:104D580005B0BDE8F040184704AB07EB4707DC197E
:104D6800336814F80A1C5B6830469847336814F8AF
:104D78000B1CEBE78863000870B505460C4681B349
:104D8800B1F57A7F33D32B68A4F57A7428465B682B
:104D98004D21A4B29847B4F57A7FF4D21E491F4B2F
:104DA800A1FB04214909642202FB1144A4B2A3FB1C
:104DB8000423DB0803EB8302A4EB4204C9B2E4B288
:104DC800DEB228460022FFF77FFF2846314601223F
:104DD800FFF77AFF284621460222BDE87040FFF718
:104DE80073BF0F49FCF71CFF26462146E9E70A492D
:104DF8000A4BA1FB04214909642202FB114292B229
:104E0800A3FB0203DB0803EB8304A2EB4404C9B24F
:104E1800E4B2DEB2D5E700BF1F85EB51CDCCCCCCD8
:104E280094630008F0B5437985B006460D46002B1B
:104E380035D1007902281ED001AFDFF86CE03C467E
:104E4800B5FBF0F202FB10550EEB05031546D97BB6
:104E580004F8011B002AF3D1BC4209D9013C01E046
:104E680014F8011D336830465B689847BC42F7D197
:104E7800304605B0F0BD0827802433682C42304600
:104E88004FF0310111BF5B685B68304630219847AD
:104E9800013F4FEA5404F0D1304605B0F0BDFFF7AA
:104EA8006BFF304605B0F0BD5460000838B50D46BC
:104EB8000446FCF74BFF2870204638BDF0B506467F
:104EC800007902288BB00C461CD001AD184F2B4638
:104ED80004F10F02B4FBF0F400FB1422B95C03F8F0
:104EE800011B002CF4D1AB4209D95C1E01E014F877
:104EF800011D336830465B689847AC42F7D13046AD
:104F08000BB0F0BD20274FF00045336825423046EE
:104F18004FF0310111BF5B685B683046302198471C
:104F2800013F4FEA5505F0D130460BB0F0BD00BF48
:104F38007460000838B50D460446FCF707FF286082
:104F4800204638BD844641EA000313F003036DD1BF
:104F5800403A41D351F8043B40F8043B51F8043B34
:104F680040F8043B51F8043B40F8043B51F8043B3B
:104F780040F8043B51F8043B40F8043B51F8043B2B
:104F880040F8043B51F8043B40F8043B51F8043B1B
:104F980040F8043B51F8043B40F8043B51F8043B0B
:104FA80040F8043B51F8043B40F8043B51F8043BFB
:104FB80040F8043B51F8043B40F8043B51F8043BEB
:104FC80040F8043B51F8043B40F8043B51F8043BDB
:104FD80040F8043B403ABDD2303211D351F8043B7B
:104FE80040F8043B51F8043B40F8043B51F8043BBB
:104FF80040F8043B51F8043B40F8043B103AEDD22A
:105008000C3205D351F8043B40F8043B043AF9D27A
:10501800043208D0D2071CBF11F8013B00F8013B4D
:1050280001D30B8803806046704700BF082A13D35A
:105038008B078DD010F003038AD0C3F10403D21A72
:10504800DB071CBF11F8013B00F8013B80D331F8A6
:10505800023B20F8023B7BE7043AD9D3013A11F826
:10506800013B00F8013BF9D20B7803704B78437091
:105078008B7883706046704781F0004102E000BF82
:1050880083F0004330B54FEA41044FEA430594EA00
:10509800050F08BF90EA020F1FBF54EA000C55EA3B
:1050A800020C7FEA645C7FEA655C00F0E2804FEA0C
:1050B8005454D4EB5555B8BF6D420CDD2C4480EAEE
:1050C800020281EA030382EA000083EA010180EA1E
:1050D800020281EA0303362D88BF30BD11F0004F6C
:1050E8004FEA01314FF4801C4CEA113102D04042A2
:1050F80061EB410113F0004F4FEA03334CEA1333DD
:1051080002D0524263EB430394EA050F00F0A780F4
:10511800A4F10104D5F1200E0DDB02FA0EFC22FAEF
:1051280005F2801841F1000103FA0EF2801843FAE3
:1051380005F359410EE0A5F120050EF1200E012AD4
:1051480003FA0EFC28BF4CF0020C43FA05F3C01812
:1051580051EBE37101F0004507D54FF0000EDCF18B
:10516800000C7EEB00006EEB0101B1F5801F1BD334
:10517800B1F5001F0CD349085FEA30004FEA3C0C38
:1051880004F101044FEA445212F5800F80F09A802E
:10519800BCF1004F08BF5FEA500C50F1000041EB32
:1051A800045141EA050130BD5FEA4C0C404141EB36
:1051B800010111F4801FA4F10104E9D191F0000F5D
:1051C80004BF01460020B1FA81F308BF2033A3F1E0
:1051D8000B03B3F120020CDA0C3208DD02F1140CD7
:1051E800C2F10C0201FA0CF021FA02F10CE002F112
:1051F8001402D8BFC2F1200C01FA02F120FA0CFC0B
:10520800DCBF41EA0C019040E41AA2BF01EB045153
:10521800294330BD6FEA04041F3C1CDA0C340EDC51
:1052280004F11404C4F1200220FA04F001FA02F394
:1052380040EA030021FA04F345EA030130BDC4F152
:105248000C04C4F1200220FA02F001FA04F340EA47
:105258000300294630BD21FA04F0294630BD94F0F8
:10526800000F83F4801306BF81F480110134013DDF
:105278004EE77FEA645C18BF7FEA655C29D094EA50
:10528800050F08BF90EA020F05D054EA000C04BFCE
:105298001946104630BD91EA030F1EBF00210020B9
:1052A80030BD5FEA545C05D14000494128BF41F058
:1052B800004130BD14F580043CBF01F5801130BDBC
:1052C80001F0004545F0FE4141F470014FF0000047
:1052D80030BD7FEA645C1ABF194610467FEA655CF8
:1052E8001CBF0B46024650EA013406BF52EA03359A
:1052F80091EA030F41F4002130BD00BF90F0000F88
:1053080004BF0021704730B54FF4806404F13204C3
:105318004FF000054FF0000150E700BF90F0000F7C
:1053280004BF0021704730B54FF4806404F13204A3
:1053380010F0004548BF40424FF000013EE700BF73
:1053480042004FEAE2014FEA31014FEA02701FBF03
:1053580012F07F4393F07F4F81F06051704792F0D5
:10536800000F14BF93F07F4F704730B54FF460744F
:1053780001F0004521F0004120E700BF50EA01029A
:1053880008BF704730B54FF000050AE050EA010247
:1053980008BF704730B511F0004502D5404261EBB7
:1053A80041014FF4806404F132045FEA915C3FF4F8
:1053B800DCAE4FF003025FEADC0C18BF03325FEA91
:1053C800DC0C18BF033202EBDC02C2F1200300FA46
:1053D80003FC20FA02F001FA03FE40EA0E0021FA6B
:1053E80002F11444C1E600BF70B54FF0FF0C4CF455
:1053F800E06C1CEA11541DBF1CEA135594EA0C0F0B
:1054080095EA0C0F00F0DEF82C4481EA030621EA45
:105418004C5123EA4C5350EA013518BF52EA033580
:1054280041F4801143F4801338D0A0FB02CE4FF032
:105438000005E1FB02E506F00042E0FB03E54FF062
:105448000006E1FB03569CF0000F18BF4EF0010E5A
:10545800A4F1FF04B6F5007F64F5407404D25FEA56
:105468004E0E6D4146EB060642EAC62141EA555109
:105478004FEAC52040EA5E504FEACE2EB4F1FD0C4B
:1054880088BFBCF5E06F1ED8BEF1004F08BF5FEAC9
:10549800500E50F1000041EB045170BD06F000467B
:1054A80046EA010140EA020081EA0301B4EB5C0428
:1054B800C2BFD4EB0C0541EA045170BD41F4801120
:1054C8004FF0000E013C00F3AB8014F1360FDEBF45
:1054D800002001F0004170BDC4F10004203C35DA21
:1054E8000C341BDC04F11404C4F1200500FA05F3A4
:1054F80020FA04F001FA05F240EA020001F0004245
:1055080021F0004110EBD37021FA04F642EB0601BA
:105518005EEA430E08BF20EAD37070BDC4F10C04E4
:10552800C4F1200500FA04F320FA05F001FA04F2A8
:1055380040EA020001F0004110EBD37041F1000194
:105548005EEA430E08BF20EAD37070BDC4F120059F
:1055580000FA05F24EEA020E20FA04F301FA05F207
:1055680043EA020321FA04F001F0004121FA04F2AF
:1055780020EA020000EBD3705EEA430E08BF20EA7F
:10558800D37070BD94F0000F0FD101F000464000B9
:1055980041EB010111F4801F08BF013CF7D041EA3B
:1055A800060195F0000F18BF704703F0004652003F
:1055B80043EB030313F4801F08BF013DF7D043EA10
:1055C8000603704794EA0C0F0CEA135518BF95EAC6
:1055D8000C0F0CD050EA410618BF52EA4306D1D14D
:1055E80081EA030101F000414FF0000070BD50EA6C
:1055F800410606BF1046194652EA430619D094EAF6
:105608000C0F02D150EA013613D195EA0C0F05D1DF
:1056180052EA03361CBF104619460AD181EA030133
:1056280001F0004141F0FE4141F470014FF00000EB
:1056380070BD41F0FE4141F4780170BD70B54FF086
:10564800FF0C4CF4E06C1CEA11541DBF1CEA135506
:1056580094EA0C0F95EA0C0F00F0A7F8A4EB0504E8
:1056680081EA030E52EA03354FEA013100F08880DF
:105678004FEA03334FF0805545EA131343EA1263A8
:105688004FEA022245EA111545EA10654FEA00265D
:105698000EF000419D4208BF964244F1FD0404F516
:1056A800407402D25B084FEA3202B61A65EB030572
:1056B8005B084FEA32024FF480104FF4002CB6EB2F
:1056C800020E75EB030E22BFB61A754640EA0C00AF
:1056D8005B084FEA3202B6EB020E75EB030E22BFEF
:1056E800B61A754640EA5C005B084FEA3202B6EB30
:1056F800020E75EB030E22BFB61A754640EA9C00EF
:105708005B084FEA3202B6EB020E75EB030E22BFBE
:10571800B61A754640EADC0055EA060E18D04FEA7C
:10572800051545EA16754FEA06164FEAC30343EA1C
:1057380052734FEAC2025FEA1C1CC0D111F4801FE9
:105748000BD141EA00014FF000004FF0004CB6E7E2
:1057580011F4801F04BF01430020B4F1FD0C88BF81
:10576800BCF5E06F3FF6AFAEB5EB030C04BFB6EB8C
:10577800020C5FEA500C50F1000041EB045170BD7F
:105788000EF0004E4EEA113114EB5C04C2BFD4EBAC
:105798000C0541EA045170BD41F480114FF0000E30
:1057A800013C90E645EA060E8DE60CEA135594EAAC
:1057B8000C0F08BF95EA0C0F3FF43BAF94EA0C0FAF
:1057C8000AD150EA01347FF434AF95EA0C0F7FF424
:1057D80025AF104619462CE795EA0C0F06D152EA78
:1057E80003353FF4FDAE1046194622E750EA41065C
:1057F80018BF52EA43067FF4C5AE50EA41047FF46D
:105808000DAF52EA43057FF4EBAE12E74FEA4102CF
:10581800B2F1E04324BFB3F5001CDCF1FE5C0DD906
:1058280001F0004C4FEAC0024CEA5070B2F1004F50
:1058380040EB830008BF20F00100704711F0804F53
:1058480021D113F13872BCBF01F00040704741F418
:1058580080114FEA5252C2F11802C2F1200C10FA1C
:105868000CF320FA02F018BF40F001004FEAC12300
:105878004FEAD32303FA0CFC40EA0C0023FA02F3A4
:105888004FEA4303CCE77FEA625307D150EA01337A
:105898001EBF4FF0FE4040F44000704701F000404A
:1058A80040F0FE4040F40000704700BF70B5064667
:1058B8000D460846B168FCF7B3F9B06800F08CFAF9
:1058C800C4B20F2C08D82B68013428465B68202105
:1058D800E4B29847102CF6D128460849FCF7A0F9FD
:1058E80028460621FCF7BEF9F06828B10368294666
:1058F8001B68BDE87040184770BD00BFC460000851
:1059080070B506460D460846B168FCF789F9B068D7
:1059180000F062FAC4B20F2C08D82B68013428466C
:105928005B682021E4B29847102CF6D12846084934
:10593800FCF776F928460621FCF794F9F06828B1B7
:10594800036829461B68BDE87040184770BD00BF52
:10595800C460000870B506460D460846B168FCF7F5
:105968005FF9B06800F038FAC4B20F2C08D82B6879
:10597800013428465B682021E4B29847102CF6D100
:1059880028460849FCF74CF928460621FCF76AF92D
:10599800F06828B1036829461B68BDE870401847BD
:1059A80070BD00BFC46000082DE9F04F142089B015
:1059B800FCF7E8F84FF4E1320446B249B24DDFF89B
:1059C8001CB3B24FDFF81893DFF81883DFF818A379
:1059D800FCF790FC20460621FCF744F90721FCF768
:1059E80041F9AB490646FCF71BF906213046FCF79E
:1059F80039F91420FCF7C6F80646A649FCF77CFAE4
:105A0800C6F800B014202E60FCF7BCF80646A24980
:105A1800FCF772FAC6F800B04C206E60FCF7B2F8DA
:105A280006469E49FCF768FA37604C20AE60FCF7E2
:105A3800A9F806469A49FCF75FFA37601420EE6029
:105A4800FCF7A0F897490746FCF756FA964B3B60D7
:105A580014202F61FCF796F8002605460822092332
:105A680049460096FCF786FE21462846FDF722FAAD
:105A78000C20FCF787F823463A2207462946FCF70C
:105A88008DFD3846FCF792FD38460497FCF7CCFDAF
:105A980020460621FCF7E6F884490546FCF7C0F8DD
:105AA80028460621FCF7DEF801200146FBF792F8AC
:105AB800012502274FF4806B404606A9CDF818B09F
:105AC8008DF81E608DF81C508DF81F508DF81D70D4
